:100000000C9434000C9449000C9449000C94490061
:100010000C9449000C9449000C9449000C9449003C
:100020000C9449000C9449000C9449000C9449002C
:100030000C9449000C9449000C9449000C9449001C
:100040000C9449000C9449000C9449000C9449000C
:100050000C9449000C9449000C9449000C944900FC
:100060000C9449000C94490011241FBECFEFD8E036
:10007000DEBFCDBF11E0A0E0B1E0E6ECF1E002C0F0
:1000800005900D92A031B107D9F70E944B000C9456
:10009000E1000C9400008FEF84B90E946C0080E0B6
:1000A00091E00E948B000E948400C82F0E947D0076
:1000B0008CE091E00E948B008C2F0E94B7008CE0B6
:1000C00091E00E948B008C2F0E949E008CE091E0BA
:1000D0000E948B00C5B9E7CF1092C5008CE08093D9
:1000E000C400E0ECF0E080818260808388E180934E
:1000F000C10086E08093C20008959091C00095FFF2
:10010000FCCF8093C60008958091C00087FFFCCF8C
:100110008091C60008950F931F93CF938C01C0E088
:10012000F801EC0FF11D8081882321F00E947D00F1
:10013000CF5FF6CFCF911F910F910895CF93C82F26
:1001400064E60E94D500805D0E947D002AE08C2F2D
:10015000622F0E94D500C92F0E94D50080E3890F2D
:100160000E947D0080E38C0FCF910C947D001F9343
:10017000CF93DF931F92CDB7DEB7898317E08981D4
:1001800090E0012E02C0959587950A94E2F780FFD2
:1001900002C081E301C080E30E947D00115078F726
:1001A0000F90DF91CF911F910895991B79E004C0C2
:1001B000991F961708F0961B881F7A95C9F78095A6
:0601C0000895F894FFCF42
:1001C60048656C6C6F20576F726C64210D0A0000D5
:00000001FF
